:100000000C9462000C948A000C948A000C948A0070
:100010000C948A000C948A000C948A000C948A0038
:100020000C948A000C948A000C948A000C948A0028
:100030000C948A000C948A000C948A000C948A0018
:100040000C946D040C948A000C943B040C941504DD
:100050000C948A000C948A000C948A000C948A00F8
:100060000C948A000C948A000000000024002700F1
:100070002A0000000000250028002B0000000000DE
:1000800023002600290004040404040404040202DA
:100090000202020203030303030301020408102007
:1000A0004080010204081020010204081020000012
:1000B0000008000201000003040700000000000027
:1000C0000000B70411241FBECFEFD8E0DEBFCDBFC4
:1000D00011E0A0E0B1E0EEE5FDE002C005900D9278
:1000E000A033B107D9F722E0A0E3B1E001C01D922F
:1000F000A630B207E1F710E0C2E6D0E004C02197D5
:10010000FE010E94A206C136D107C9F70E9402056E
:100110000C94AD060C940000CF92DF92EF92FF9208
:100120000F931F93CF93DF936C017A018B01C0E093
:10013000D0E0CE15DF0589F0D8016D918D01D60193
:10014000ED91FC910190F081E02DC6010995892B7C
:1001500011F47E0102C02196ECCFC701DF91CF914F
:100160001F910F91FF90EF90DF90CF900895FC01C9
:10017000918D828D981761F0828DDF01A80FB11DDE
:100180005D968C91928D9F5F9F73928F90E0089502
:100190008FEF9FEF0895FC01918D828D981731F0BC
:1001A000828DE80FF11D858D90E008958FEF9FEF10
:1001B0000895FC01918D228D892F90E0805C9F4FE6
:1001C000821B91098F739927089581E591E00E9420
:1001D000D90021E0892B09F420E0822F0895FC0149
:1001E000848DDF01A80FB11DA35ABF4F2C91848DC0
:1001F00090E001968F739927848FA689B7892C93F5
:10020000A089B1898C9180648C93938D848D98138F
:1002100006C00288F389E02D80818F7D8083089558
:10022000EF92FF920F931F93CF93DF93EC0181E046
:10023000888F9B8D8C8D981305C0E889F989808102
:1002400085FD24C0F62E0B8D10E00F5F1F4F0F733E
:100250001127E02E8C8DE8120CC00FB607FCFACFE8
:10026000E889F989808185FFF5CFCE010E94EF00F2
:10027000F1CF8B8DFE01E80FF11DE35AFF4FF082A5
:100280000B8FEA89FB898081806207C0EE89FF8934
:100290006083E889F98980818064808381E090E0CF
:1002A000DF91CF911F910F91FF90EF900895CF9321
:1002B000DF93EC01888D8823C9F0EA89FB8980816E
:1002C00085FD05C0A889B9898C9186FD0FC00FB640
:1002D00007FCF5CF808185FFF2CFA889B9898C9181
:1002E00085FFEDCFCE010E94EF00E7CFDF91CF91E8
:1002F000089580E090E0892B29F00E94E5008111AB
:100300000C9400000895833081F028F4813099F036
:100310008230A1F008958730A9F08830B9F0843098
:10032000D1F4809180008F7D03C0809180008F7711
:1003300080938000089584B58F7702C084B58F7D47
:1003400084BD08958091B0008F7703C08091B00084
:100350008F7D8093B0000895CF93DF93282F30E0F6
:10036000F901E255FF4F8491F901E656FF4FD49110
:10037000F901EA57FF4FC491CC2391F081110E94FB
:100380008301EC2FF0E0EE0FFF1FE458FF4FA59123
:10039000B491EC91ED2381E090E021F480E002C083
:1003A00080E090E0DF91CF9108951F93CF93DF938A
:1003B000282F30E0F901E255FF4F8491F901E6560C
:1003C000FF4FD491F901EA57FF4FC491CC23C9F0F4
:1003D000162F81110E948301EC2FF0E0EE0FFF1F1A
:1003E000EE58FF4FA591B4918FB7F894111105C045
:1003F0009C91ED2FE095E92302C0EC91ED2BEC935D
:100400008FBFDF91CF911F910895CF93DF9390E03D
:10041000FC01E656FF4F2491FC01EA57FF4F8491FF
:10042000882361F190E0880F991FFC01E859FF4F84
:10043000C591D491FC01EE58FF4FA591B491611183
:1004400009C09FB7F8948881209582238883EC9116
:100450002E230BC0623061F49FB7F8943881822F4D
:10046000809583238883EC912E2B2C939FBF06C00D
:100470008FB7F894E8812E2B28838FBFDF91CF911F
:1004800008952FB7F89460913701709138018091E9
:10049000390190913A012FBF0895CF93DF93EC017A
:1004A00060E08E810E94D50161E08E810E94D501BD
:1004B00060E08E810E94D5018BE891E00197F1F711
:1004C000DF91CF910895CF92DF92EF92FF920F9339
:1004D0001F93CF93DF937C016C0187E0C80ED11C82
:1004E000C0E0D0E0062F10E0B8010C2E02C07595D8
:1004F00067950A94E2F76170F60181916F010E949D
:10050000D5012196C430D10579F7C701DF91CF918C
:100510001F910F91FF90EF90DF90CF900C944D02C0
:10052000CF92DF92EF92FF920F931F93CF93DF93BF
:10053000EC01F62E642F8C810E94D5018D818F3FB6
:1005400019F060E00E94D5018F850F2D10E084FF27
:1005500025C06E0187E0C80ED11CE12CF12CB8013A
:100560000E2C02C0759567950A94E2F76170F6014A
:1005700081916F010E94D501FFEFEF1AFF0A88E019
:10058000E816F10461F7CE01DF91CF911F910F9131
:10059000FF90EF90DF90CF900C944D02B80184E073
:1005A000759567958A95E1F7CE010E9463026F2DDC
:1005B000CE01DF91CF911F910F91FF90EF90DF90CF
:1005C000CF900C94630241E00E94900281E090E0A1
:1005D000089540E00C949002EF92FF920F931F93C6
:1005E000CF93DF93EC01623018F08F8588608F879E
:1005F0006B8B1C8A80E48D8B80E18E8B80E58F8BEA
:1006000061E08C810E9405028D818F3F19F061E0CD
:100610000E94050261E08E810E9405027E0187E052
:10062000E80EF11C00E010E08F8584FD03C084E03B
:1006300090E002C088E090E0081719074CF461E0F0
:10064000F70181917F010E9405020F5F1F4FECCFE0
:100650008BE39DE00197F1F760E08C810E94D5016A
:1006600060E08E810E94D5018D818F3F19F060E09E
:100670000E94D5016F8564FD1DC063E0CE010E941C
:1006800063020BE416E4C8010197F1F763E0CE01C1
:100690000E946302C8010197F1F763E0CE010E9456
:1006A000630283E592E00197F1F762E0CE010E94D8
:1006B000630216C06062CE010E94E9028BE496E4F8
:1006C0000197F1F76F856062CE010E94E90283E530
:1006D00092E00197F1F76F856062CE010E94E90216
:1006E0006F856062CE010E94E90284E0888B6CE035
:1006F000CE010E94E90261E0CE010E94E9028BE393
:100700009FE10197F1F782E0898B66E0CE01DF91EE
:10071000CF911F910F91FF90EF900C94E9020097F9
:1007200069F0FC0101900020E9F73197AF01481B07
:10073000590BBC018EEE91E00C948C0080E090E0AF
:100740000895CF93DF9361E08EEE91E00E94E9027D
:100750008BE39FE10197F1F7809130019091310196
:1007600001968430910514F081E090E0909331017E
:1007700080933001E1E0809101028111E0E0E19598
:10078000F0E0E251FE4F648960688EEE91E00E94D5
:10079000E9026EE38EEE91E00E94E302C091300127
:1007A000D09131012197C330D105D0F5E1E080919E
:1007B00001028111E0E0E195F0E0E251FE4F648931
:1007C0006F5F60688EEE91E00E94E902CC0FDD1F42
:1007D000C050DF4F888199810E948F03C091300102
:1007E000D0913101C330D105D9F0E0910102E2305E
:1007F00010F4E15001C0E1E0F0E0E251FE4F648905
:100800006F5F60688EEE91E00E94E902CC0FDD1F01
:10081000C050DF4F88819981DF91CF910C948F0375
:10082000DF91CF9108950E94A8061F920F920FB6F4
:100830000F9211242F933F934F935F936F937F9366
:100840008F939F93AF93BF93EF93FF9381E591E0D5
:100850000E94EF00FF91EF91BF91AF919F918F9117
:100860007F916F915F914F913F912F910F900FBEAC
:100870000F901F9018951F920F920FB60F92112490
:100880002F938F939F93EF93FF93E0916101F091EA
:1008900062018081E0916701F091680182FD12C0E0
:1008A000908180916A018F5F8F7320916B01821715
:1008B00051F0E0916A01F0E0EF5AFE4F958F80937E
:1008C0006A0101C08081FF91EF919F918F912F91DB
:1008D0000F900FBE0F901F9018951F920F920FB69A
:1008E0000F9211242F933F938F939F93AF93BF93B6
:1008F0008091370190913801A0913901B0913A016E
:100900003091360123E0230F2D3720F40196A11DED
:10091000B11D05C026E8230F0296A11DB11D20932D
:1009200036018093370190933801A0933901B09339
:100930003A018091320190913301A0913401B0913C
:1009400035010196A11DB11D8093320190933301B1
:10095000A0933401B0933501BF91AF919F918F91D6
:100960003F912F910F900FBE0F901F901895E1E5CA
:10097000F1E01382128288EE93E0A0E0B0E084837D
:100980009583A683B7838AE091E09183808385EC89
:1009900090E09587848784EC90E09787868780EC49
:1009A00090E0918B808B81EC90E0938B828B82EC3A
:1009B00090E0958B848B86EC90E0978B868B118EE4
:1009C000128E138E148EEEEEF1E0138212828AE103
:1009D00091E0918380838CE084838FEF85838BE02B
:1009E000868385E0878384E0808783E0818782E057
:1009F00082871386148615861686178661E0CF01D6
:100A00000C94EC02789484B5826084BD84B58160D6
:100A100084BD85B5826085BD85B5816085BD8091C9
:100A20006E00816080936E00109281008091810041
:100A30008260809381008091810081608093810039
:100A4000809180008160809380008091B1008460FB
:100A50008093B1008091B00081608093B00080915C
:100A60007A00846080937A0080917A00826080931B
:100A70007A0080917A00816080937A0080917A0078
:100A8000806880937A001092C10060E088E00E9444
:100A9000050260E087E00E94050261E08DE00E94AF
:100AA000050261E089E00E94050261E08AE00E949F
:100AB000050262E08EEE91E00E94EC02E09161019D
:100AC000F091620182E08083E0915D01F0915E012E
:100AD0001082E0915F01F09160018FEC80831092B1
:100AE0006901E0916501F091660186E08083E09103
:100AF0006301F0916401808180618083E0916301F2
:100B0000F0916401808188608083E0916301F091BD
:100B10006401808180688083E0916301F0916401C9
:100B200080818F7D808310924E0110924D010E9432
:100B3000A1031092500110924F0110924C0110929B
:100B40004B0110923C0110923B011092480110920F
:100B5000410110924A0110924901109243011092F2
:100B600042011092440110924501109246011092E8
:100B7000470110923D0110923E0110923F011092E8
:100B80004001FF24F39488E00E94AC018C0187E0CF
:100B90000E94AC01EC018091490190914A018017BB
:100BA000910781F08091480181110CC00E9441029F
:100BB00060934401709345018093460190934701EF
:100BC000F092480180914201909143018C179D075A
:100BD00081F08091410181110CC00E94410260931B
:100BE0003D0170933E0180933F0190934001F0924C
:100BF0004101D0903C01DD2021F010925001109273
:100C00004F01E0903B01EE2021F010924C01109238
:100C10004B010E9441028090440190904501A090B8
:100C20004601B0904701DC01CB0188199909AA0956
:100C3000BB09C397A105B105B8F00130110549F40E
:100C4000D11012C01093500100934F01F0923C015B
:100C50000BC00115110541F41092500110924F0183
:100C60001092480110923C010E94410280903D0187
:100C700090903E01A0903F01B0904001DC01CB017B
:100C800088199909AA09BB09C397A105B105B0F054
:100C9000C130D10549F4E11011C0D0934C01C0938B
:100CA0004B01F0923B010AC0209741F410924C0195
:100CB00010924B011092410110923B0110934A0196
:100CC00000934901D0934301C093420180914F01A9
:100CD00090915001019759F5C0914D01D0914E016D
:100CE0002196D0934E01C0934D0160E08AE00E94AE
:100CF000D50107E010E0DD27BE01002E02C075958A
:100D000067950A94E2F7617077278DE00E94D5011C
:100D100061E089E00E94D50160E089E00E94D50190
:100D20000150110948F761E08AE00E94D5018091E5
:100D30004B0190914C01019711F40E94A1030E9474
:100D4000790121CFEE0FFF1F0590F491E02D09945A
:0E0D500081E090E0F8940C94AD06F894FFCF8B
:100D5E001E0125012A010000000010018C00D9009F
:100D6E00B700CB00570100000000E3028C00526573
:100D7E00636F726400506C617900436C6561720040
:00000001FF
