:100000000C945D000C9485000C9485000C94850084
:100010000C9485000C9485000C9485000C9485004C
:100020000C9485000C9485000C9485000C941503A9
:100030000C9485000C9485000C9485000C9485002C
:100040000C94CB020C9485000C9499020C947302CE
:100050000C9485000C9485000C9485000C9485000C
:100060000C9485000C94850000000008000201003B
:100070000003040700000000000000000000000072
:10008000250028002B0000000000240027002A0083
:10009000040404040404040402020202020203032E
:1000A0000303030301020408102040800102040836
:1000B00010200102040810202D0311241FBECFEFD1
:1000C000D8E0DEBFCDBF11E0A0E0B1E0ECEAF8E09F
:1000D00002C005900D92A831B107D9F721E0A8E13F
:1000E000B1E001C01D92A73DB207E1F710E0CDE5F8
:1000F000D0E004C02197FE010E944904CC35D1070D
:10010000C9F70E9448040C9454040C94000090E039
:10011000FC01EC55FF4F2491FC01E057FF4F849107
:10012000882399F090E0880F991FFC01EA57FF4F50
:10013000A591B491FC01E458FF4F859194918FB73C
:10014000F894EC91E22BEC938FBF0895CF92DF925D
:10015000EF92FF920F931F93CF93DF936C017A017D
:100160008B01C0E0D0E0CE15DF0589F0D8016D919C
:100170008D01D601ED91FC910190F081E02DC60139
:100180000995892B11F47E0102C02196ECCFC7019D
:10019000DF91CF911F910F91FF90EF90DF90CF9063
:1001A0000895FC01918D828D981761F0828DDF0199
:1001B000A80FB11D5D968C91928D9F5F9F73928F5A
:1001C00090E008958FEF9FEF0895FC01918D828D4F
:1001D000981731F0828DE80FF11D858D90E008951C
:1001E0008FEF9FEF0895FC01918D228D892F90E074
:1001F000805C9F4F821B91098F7399270895FC01A2
:10020000848DDF01A80FB11DA35ABF4F2C91848D9F
:1002100090E001968F739927848FA689B7892C93D4
:10022000A089B1898C9180648C93938D848D98136F
:1002300006C00288F389E02D80818F7D8083089538
:10024000EF92FF920F931F93CF93DF93EC0181E026
:10025000888F9B8D8C8D981305C0E889F9898081E2
:1002600085FD24C0F62E0B8D10E00F5F1F4F0F731E
:100270001127E02E8C8DE8120CC00FB607FCFACFC8
:10028000E889F989808185FFF5CFCE010E94FF00C2
:10029000F1CF8B8DFE01E80FF11DE35AFF4FF08285
:1002A0000B8FEA89FB898081806207C0EE89FF8914
:1002B0006083E889F98980818064808381E090E0AF
:1002C000DF91CF911F910F91FF90EF900895CF9301
:1002D000DF93EC01888D8823C9F0EA89FB8980814E
:1002E00085FD05C0A889B9898C9186FD0FC00FB620
:1002F00007FCF5CF808185FFF2CFA889B9898C9161
:1003000085FFEDCFCE010E94FF00E7CFDF91CF91B7
:10031000089590E0FC01E859FF4F3491FC01EC5541
:10032000FF4F2491FC01E057FF4FE491EE2309F4C5
:100330003BC0332339F1333091F038F43130A9F038
:10034000323001F584B58F7D12C0373091F03830EE
:10035000A1F03430B9F4809180008F7D03C080918A
:1003600080008F77809380000DC084B58F7784BD27
:1003700009C08091B0008F7703C08091B0008F7D5D
:100380008093B000F0E0EE0FFF1FE458FF4FA591FF
:10039000B4918FB7F894EC91611103C020952E238E
:1003A00001C02E2B2C938FBF0895CF93DF93EC01C8
:1003B00060E08E810E94890161E08E810E94890146
:1003C00060E08E810E9489018BE891E00197F1F74E
:1003D000DF91CF910895CF92DF92EF92FF920F932A
:1003E0001F93CF93DF937C016C0187E0C80ED11C73
:1003F000C0E0D0E0062F10E0B8010C2E02C07595C9
:1004000067950A94E2F76170F60181916F010E948D
:1004100089012196C430D10579F7C701DF91CF91C9
:100420001F910F91FF90EF90DF90CF900C94D5012A
:10043000CF92DF92EF92FF920F931F93CF93DF93B0
:10044000EC01F62E642F8C810E9489018D818F3FF3
:1004500019F060E00E9489018F850F2D10E084FF64
:1004600025C06E0187E0C80ED11CE12CF12CB8012B
:100470000E2C02C0759567950A94E2F76170F6013B
:1004800081916F010E948901FFEFEF1AFF0A88E056
:10049000E816F10461F7CE01DF91CF911F910F9122
:1004A000FF90EF90DF90CF900C94D501B80184E0DD
:1004B000759567958A95E1F7CE010E94EB016F2D46
:1004C000CE01DF91CF911F910F91FF90EF90DF90C0
:1004D000CF900C94EB0141E00E94180281E090E083
:1004E00008950E944F041F920F920FB60F9211248D
:1004F0002F933F934F935F936F937F938F939F932C
:10050000AF93BF93EF93FF9382E291E00E94FF00CD
:10051000FF91EF91BF91AF919F918F917F916F91DB
:100520005F914F913F912F910F900FBE0F901F90B1
:1005300018951F920F920FB60F9211242F938F933D
:100540009F93EF93FF93E0913201F091330180810B
:10055000E0913801F091390182FD12C090818091C3
:100560003B018F5F8F7320913C01821751F0E09126
:100570003B01F0E0EE5DFE4F958F80933B0101C0A3
:100580008081FF91EF919F918F912F910F900FBEDE
:100590000F901F9018951F920F920FB60F92112473
:1005A0002F933F938F939F93AF93BF9380911E019F
:1005B00090911F01A0912001B091210130911D0166
:1005C00023E0230F2D3720F40196A11DB11D05C096
:1005D00026E8230F0296A11DB11D20931D018093D3
:1005E0001E0190931F01A0932001B09321018091DF
:1005F000190190911A01A0911B01B0911C01019663
:10060000A11DB11D8093190190931A01A0931B01A4
:10061000B0931C01BF91AF919F918F913F912F910A
:100620000F900FBE0F901F9018951F920F920FB64C
:100630000F9211248F9380911801811102C0299883
:1006400001C0299A809118018095809318018F919B
:100650000F900FBE0F901F901895CF93DF931092BD
:1006600025011092240188EE93E0A0E0B0E0809391
:10067000260190932701A0932801B093290184E0DB
:1006800091E0909323018093220185EC90E0909378
:100690002F0180932E0184EC90E0909331018093A0
:1006A000300180EC90E0909333018093320181EC33
:1006B00090E0909335018093340182EC90E0909328
:1006C00037018093360186EC90E090933901809356
:1006D000380110923B0110923C0110923D011092A2
:1006E0003E011092C2011092C10184E191E0909309
:1006F000C0018093BF018CE08093C3018FEF809392
:10070000C4018BE08093C50185E08093C60184E03D
:100710008093C70183E08093C80182E08093C90180
:100720001092CA011092CB011092CC011092CD010F
:100730001092CE0181E08093D2011092D30180E427
:100740008093D40180E18093D50180E58093D60128
:100750008CE00E9487008091C4018F3F11F00E94BD
:1007600087008091C5010E948700C0E0D0E08091A1
:10077000CE0184FD03C084E090E002C088E090E0F8
:10078000C817D90744F4FE01E154FE4F87810E9447
:1007900087002196ECCF8BE39DE00197F1F760E0B5
:1007A0008091C3010E94890160E08091C5010E948F
:1007B00089018091C4018F3F19F060E00E94890196
:1007C0006091CE0164FD20C063E08FEB91E00E9458
:1007D000EB01CBE4D6E4CE010197F1F763E08FEBB8
:1007E00091E00E94EB012197F1F763E08FEB91E03C
:1007F0000E94EB0183E592E00197F1F762E08FEB55
:1008000091E00E94EB011EC0606240E08FEB91E03E
:100810000E9418028BE496E40197F1F76091CE01F3
:10082000606240E08FEB91E00E94180283E592E065
:100830000197F1F76091CE01606240E08FEB91E0AB
:100840000E9418026091CE01606240E08FEB91E05F
:100850000E94180284E08093CF0140E06CE08FEBAF
:1008600091E00E94180240E061E08FEB91E00E946D
:1008700018028BE39FE10197F1F782E08093D001AA
:1008800040E066E08FEB91E0DF91CF910C9418028D
:100890000895EE0FFF1F0590F491E02D099481E07B
:0C08A00090E0F8940C945404F894FFCFFE
:1008AC00000000002001A600F300D100E500670164
:0808BC00000000006B02A60021
:00000001FF
