:100000000C945D000C9485000C9485000C94850084
:100010000C9485000C9485000C9485000C9485004C
:100020000C9485000C9485000C9485000C94CB03F3
:100030000C9485000C9485000C9485000C9485002C
:100040000C9481030C9485000C944F030C942903A9
:100050000C9485000C9485000C9485000C9485000C
:100060000C9485000C94850000000008000201003B
:100070000003040700000000000000000000000072
:10008000250028002B0000000000240027002A0083
:10009000040404040404040402020202020203032E
:1000A0000303030301020408102040800102040836
:1000B0001020010204081020E30311241FBECFEF1B
:1000C000D8E0DEBFCDBF11E0A0E0B1E0EAE0FAE0A9
:1000D00002C005900D92A632B107D9F721E0A6E241
:1000E000B1E001C01D92A53EB207E1F710E0CDE5F9
:1000F000D0E004C02197FE010E94F804CC35D1075E
:10010000C9F70E942E040C9403050C94000090E0A3
:10011000FC01EC55FF4F2491FC01E057FF4F849107
:10012000882399F090E0880F991FFC01EA57FF4F50
:10013000A591B491FC01E458FF4F859194918FB73C
:10014000F894EC91E22BEC938FBF0895CF92DF925D
:10015000EF92FF920F931F93CF93DF936C017A017D
:100160008B01C0E0D0E0CE15DF0589F0D8016D919C
:100170008D01D601ED91FC910190F081E02DC60139
:100180000995892B11F47E0102C02196ECCFC7019D
:10019000DF91CF911F910F91FF90EF90DF90CF9063
:1001A0000895FC01918D828D981761F0828DDF0199
:1001B000A80FB11D5D968C91928D9F5F9F73928F5A
:1001C00090E008958FEF9FEF0895FC01918D828D4F
:1001D000981731F0828DE80FF11D858D90E008951C
:1001E0008FEF9FEF0895FC01918D228D892F90E074
:1001F000805C9F4F821B91098F739927089580E33C
:1002000091E00E94F30021E0892B09F420E0822F85
:100210000895FC01848DDF01A80FB11DA35ABF4FC3
:100220002C91848D90E001968F739927848FA689F5
:10023000B7892C93A089B1898C9180648C93938D1C
:10024000848D981306C00288F389E02D80818F7D0C
:1002500080830895EF92FF920F931F93CF93DF93C4
:10026000EC0181E0888F9B8D8C8D981305C0E88907
:10027000F989808185FD24C0F62E0B8D10E00F5F7B
:100280001F4F0F731127E02E8C8DE8120CC00FB694
:1002900007FCFACFE889F989808185FFF5CFCE0187
:1002A0000E940901F1CF8B8DFE01E80FF11DE35A89
:1002B000FF4FF0820B8FEA89FB898081806207C043
:1002C000EE89FF896083E889F98980818064808371
:1002D00081E090E0DF91CF911F910F91FF90EF901F
:1002E0000895CF93DF93EC01888D8823C9F0EA89C4
:1002F000FB89808185FD05C0A889B9898C9186FD1F
:100300000FC00FB607FCF5CF808185FFF2CFA8891B
:10031000B9898C9185FFEDCFCE010E940901E7CF0D
:10032000DF91CF91089580E090E0892B29F00E9421
:10033000FF0081110C940000089590E0FC01E85941
:10034000FF4F3491FC01EC55FF4F2491FC01E05725
:10035000FF4FE491EE2309F43BC0332339F13330EE
:1003600091F038F43130A9F0323001F584B58F7D49
:1003700012C0373091F03830A1F03430B9F48091A8
:1003800080008F7D03C0809180008F7780938000F4
:100390000DC084B58F7784BD09C08091B0008F7780
:1003A00003C08091B0008F7D8093B000F0E0EE0F2D
:1003B000FF1FE458FF4FA591B4918FB7F894EC91CB
:1003C000611103C020952E2301C02E2B2C938FBFCB
:1003D0000895CF93DF93EC0160E08E810E949D0130
:1003E00061E08E810E949D0160E08E810E949D01EE
:1003F0008BE891E00197F1F7DF91CF910895CF92CB
:10040000DF92EF92FF920F931F93CF93DF937C01C4
:100410006C0187E0C80ED11CC0E0D0E0062F10E0D0
:10042000B8010C2E02C0759567950A94E2F76170C9
:10043000F60181916F010E949D012196C430D10582
:1004400079F7C701DF91CF911F910F91FF90EF9046
:10045000DF90CF900C94E901CF92DF92EF92FF9260
:100460000F931F93CF93DF93EC01F62E642F8C81B3
:100470000E949D018D818F3F19F060E00E949D01D7
:100480008F850F2D10E084FF25C06E0187E0C80E18
:10049000D11CE12CF12CB8010E2C02C0759567958A
:1004A0000A94E2F76170F60181916F010E949D014B
:1004B000FFEFEF1AFF0A88E0E816F10461F7CE01BA
:1004C000DF91CF911F910F91FF90EF90DF90CF9030
:1004D0000C94E901B80184E0759567958A95E1F778
:1004E000CE010E94FF016F2DCE01DF91CF911F91B0
:1004F0000F91FF90EF90DF90CF900C94FF0141E0BF
:100500000E942C0281E090E0089540E00C942C02BF
:10051000EF92FF920F931F93CF93DF93EC01623022
:1005200018F08F8588608F876B8B1C8A80E48D8B99
:1005300080E18E8B80E58F8B8C810E9487008D817E
:100540008F3F11F00E9487008E810E9487007E01FC
:1005500087E0E80EF11C00E010E08F8584FD03C009
:1005600084E090E002C088E090E00817190744F4A6
:10057000F70181917F010E9487000F5F1F4FEDCF30
:100580008BE39DE00197F1F760E08C810E949D0173
:1005900060E08E810E949D018D818F3F19F060E0A7
:1005A0000E949D016F8564FD1DC063E0CE010E9425
:1005B000FF010BE416E4C8010197F1F763E0CE01F7
:1005C0000E94FF01C8010197F1F763E0CE010E948C
:1005D000FF0183E592E00197F1F762E0CE010E940E
:1005E000FF0116C06062CE010E9485028BE496E492
:1005F0000197F1F76F856062CE010E94850283E565
:1006000092E00197F1F76F856062CE010E9485024A
:100610006F856062CE010E94850284E0888B6CE069
:10062000CE010E94850261E0CE010E9485028BE32B
:100630009FE10197F1F782E0898B66E0CE01DF91BF
:10064000CF911F910F91FF90EF900C9485020E9423
:10065000FE041F920F920FB60F9211242F933F9317
:100660004F935F936F937F938F939F93AF93BF93BA
:10067000EF93FF9380E391E00E940901FF91EF91D6
:10068000BF91AF919F918F917F916F915F914F91AA
:100690003F912F910F900FBE0F901F9018951F92B2
:1006A0000F920FB60F9211242F938F939F93EF9376
:1006B000FF93E0914001F09141018081E09146017A
:1006C000F091470182FD12C09081809149018F5FB6
:1006D0008F7320914A01821751F0E0914901F0E0B7
:1006E000E05DFE4F958F8093490101C08081FF91AD
:1006F000EF919F918F912F910F900FBE0F901F90B0
:1007000018951F920F920FB60F9211242F933F93BB
:100710008F939F93AF93BF9380912C0190912D0164
:10072000A0912E01B0912F0130912B0123E0230FD6
:100730002D3720F40196A11DB11D05C026E8230F19
:100740000296A11DB11D20932B0180932C01909343
:100750002D01A0932E01B0932F018091270190913C
:100760002801A0912901B0912A010196A11DB11D76
:100770008093270190932801A0932901B0932A0127
:10078000BF91AF919F918F913F912F910F900FBE8D
:100790000F901F9018951F920F920FB60F92112471
:1007A0008F9380912601811102C0599801C0599AF6
:1007B000809126018095809326018F910F900FBE26
:1007C0000F901F901895E0E3F1E01382128288EEFB
:1007D00093E0A0E0B0E084839583A683B78384E0B0
:1007E00091E09183808385EC90E09587848784EC09
:1007F00090E09787868780EC90E0918B808B81ECEE
:1008000090E0938B828B82EC90E0958B848B86ECCE
:1008100090E0978B868B118E128E138E148EEDECDA
:10082000F1E01382128284E191E0918380838CE075
:1008300084838FEF85838BE0868385E0878384E0E4
:10084000808783E0818782E08287138614861586FD
:100850001686178661E0CF010C948802CF93DF9350
:10086000CDB7DEB7A1970FB6F894DEBF0FBECDBFF0
:10087000789484B5826084BD84B5816084BD85B57B
:10088000826085BD85B5816085BD80916E00816087
:1008900080936E001092810080918100826080932D
:1008A000810080918100816080938100809180002F
:1008B0008160809380008091B10084608093B1005A
:1008C0008091B00081608093B00080917A00846054
:1008D00080937A0080917A00826080937A00809180
:1008E0007A00816080937A0080917A00806880939A
:1008F0007A001092C10062E08DEC91E00E948802C3
:100900004DE050E068E171E08DEC91E00E94A600BE
:1009100088EEC82E83E0D82EE12CF12C9AE0892EA7
:10092000912CA12CB12CE091E001E23010F4E150C7
:1009300001C0E1E0F0E0E353FE4F648960688DECB4
:1009400091E00E9485022FB7F89460912C0170917C
:100950002D0180912E0190912F012FBFA7019601AB
:100960000E94D60419A28E010F5D1F4FCA01B90162
:10097000A50194010E94D604605DF80162938F0185
:10098000211531054105510589F7309761F0019036
:100990000020E9F73197AF01401B510BB8018DECF6
:1009A00091E00E94A6000E949301BDCFA1E21A2E01
:1009B000AA1BBB1BFD010DC0AA1FBB1FEE1FFF1F03
:1009C000A217B307E407F50720F0A21BB30BE40B53
:1009D000F50B661F771F881F991F1A9469F760959A
:1009E0007095809590959B01AC01BD01CF01089554
:1009F000EE0FFF1F0590F491E02D099481E090E047
:0A0A0000F8940C940305F894FFCF5E
:100A0A00000000002A01A600F300D100E5007101F0
:100A1A00000000007F02A60068656C6C6F2C2077CE
:060A2A006F726C642100F4
:00000001FF
